:100000000C94CB280C94F3280C94F3280C94F3282C
:100010000C94F3280C94F3280C94F3280C94C32C20
:100020000C94F3280C94F3280C94F3280C94F328E4
:100030000C94F3280C94F3280C94F3280C94F328D4
:100040000C94792C0C94F3280C94452D0C941F2DB2
:100050000C94F3280C94F3280C94F3280C94F328B4
:100060000C94F3280C94F32802D2010800D2010862
:1000700000D2010800BA02020017040200A403081B
:10008000007003080010030800750502001704043F
:1000900000A403080070030800100308007505029F
:1000A0000017040400A403080070030800A4030858
:1000B00000100302000B0208000B0208000B0208EC
:1000C00000BA02020017040200A40308007003082B
:1000D00000100308007505020017040400A40308BB
:1000E00000700308001003080075050200170404DF
:1000F00000A403080070030800A403080010030212
:10010000000B02F8FF0B0210004B02FCFF4B020831
:1001100000A40308007003080010030800BA0208D6
:1001200000BA02080010030800700308001003045E
:10013000004B020800930204000B02F8FF0B0210B0
:10014000004B02FCFF4B020800A4030800700308E8
:100150000010030800BA0208001704F8FF1003108B
:100160000010030200000008000B0208004B02FC14
:10017000FF4B020800A403080070030800100308E6
:1001800000BA020800BA0208001003080070030851
:1001900000100304004B020800930204001704F847
:1001A000FF1704100075050400DD04080055040461
:1001B0000017040800A40304003F03080010030410
:1001C00000BA02080017040100930208004B02085D
:1001D00000720104009F0104002A020800EE0108D9
:1001E00000260104004A010400EE010800B80108DD
:1001F00000150104004A010400B8010200000002D9
:1002000000B801FCFFB801FCFFB8011000B80110F4
:1002100000B8011000B80110005D010800000008DE
:1002200000B801FCFFB801FCFFB8011000B80110D4
:1002300000B8011000B80110005D010800000008BE
:1002400000B8010400B8010400B80104005D01F821
:10025000FF0B021000B80104005D01F8FF0B021053
:1002600000B8010200930204009302040093020408
:1002700000BA02F8FF0B021000B80104005D01F89B
:10028000FF0B021000B801020070030400B801F86F
:10029000FFB8011000700304003F03F8FF100310C3
:1002A000006E0210004B0210006E020800000008F1
:1002B00000B80108006E0204004B02F8FF2A021089
:1002C000000B021000EE0110000B021000000008ED
:1002D000005D0108009F0104005D01F8FFB801F016
:1002E000FF0B020400B801F8FF0B0210009302029A
:1002F0000070030400B801F8FFB801100070030497
:10030000003F03F8FF100310006E0210004B0210B4
:10031000006E02080000000800B80108006E020428
:10032000004B02F8FF2A0210000B021000EE011031
:10033000000B021000000008005D0108009F01048E
:10034000005D01F8FFB801F0FFB80104005D01F89D
:10035000FF0B021000B801020093020400EE010836
:10036000000B0208004B0204000B020800EE01081B
:1003700000B8010400B80108000B02080093020451
:10038000004B0208000B020800EE01FCFF0B020804
:10039000004B020400930204000B020400B80104A5
:1003A00000B8010800B8010400EE0108000B0208C3
:1003B000004B02FCFFBA020800700304001003089F
:1003C00000BA0208009302FCFF0B0208009302042B
:1003D000004B0208000B020800EE010400EE0108C9
:1003E000000B0208004B020400930204000B0204FD
:1003F00000B8010400B801040000000400930204E6
:1004000000EE0108000B0208004B0204000B02087A
:1004100000EE010800B8010400B80108000B020852
:1004200000930204004B0208000B020800EE01FCDE
:10043000FF0B0208004B020400930204000B0204AD
:1004400000B8010400B8010800B8010400EE01087A
:10045000000B0208004B02FCFFBA02080070030404
:100460000010030800BA0208009302FCFF0B020808
:1004700000930204004B0208000B020800EE010486
:1004800000EE0108000B0208004B02040093020476
:10049000000B020400B8010400B8010400000004CD
:1004A00000930210006E021000930210006E021002
:1004B0000093021000EE0110004B0210000B02101E
:1004C00000B801F8FF060110004A011000B8011041
:1004D00000EE01F8FF4A0110009F011000EE01102C
:1004E000000B020800000010004A011000930210E7
:1004F000006E021000930210006E021000930210B2
:1005000000EE0110004B0210000B021000B801F8C1
:10051000FF060110004A011000B8011000EE01F8BA
:10052000FF4A0110000B021000EE011000B8010498
:100530000000000800930210006E021000930210E9
:10054000006E02100093021000EE0110004B02102A
:10055000000B021000B801F8FF060110004A01105C
:1005600000B8011000EE01F8FF4A0110009F0110D1
:1005700000EE0110000B020800000010004A0110FC
:1005800000930210006E021000930210006E021021
:100590000093021000EE0110004B0210000B02103D
:1005A00000B801F8FF060110004A011000B8011060
:1005B00000EE01F8FF4A0110000B021000EE0110DE
:1005C00000B801080000001000EE0110000B02103E
:1005D000004B0210009302F8FF88011000BA0210CD
:1005E00000930210004B02F8FF5D0110009302100F
:1005F000004B0210000B02F8FF4A0110004B0210E2
:10060000000B021000EE010800000010004A01106B
:100610000093021000000010000000100093021070
:10062000002705100000001000000010006E0210EE
:10063000009302100000001000000010006E021075
:1006400000930210006E021000930210006E021060
:100650000093021000EE0110004B0210000B02107C
:1006600000B801080000001000060110004A011047
:1006700000B8011000EE010800000010004A01104F
:10068000009F011000EE0110000B02080000001096
:10069000004A011000930210006E02100093021035
:1006A000006E02100093021000EE0110004B0210C9
:1006B000000B021000B80108000000100006011035
:1006C000004A011000B8011000EE010800000010FF
:1006D000004A0110000B021000EE011000B80108E2
:1006E0000000001000EE0110000B0210004B021081
:1006F000009302F8FF88011000BA02100093021064
:10070000004B02F8FF5D011000930210004B021035
:10071000000B02F8FF4A0110004B0210000B021000
:1007200000EE010800000010004A011000930210C2
:1007300000000010000000100093021000270510B8
:100740000000001000000010006E02100093021064
:100750000000001000000010006E02100093021054
:10076000006E021000930210006E0210009302103F
:1007700000EE0110004B0210000B021000B801083F
:100780000000001000060110004A011000B801101E
:1007900000EE010800000010004A0110009F011047
:1007A00000EE0110000B020800000010004A0110CA
:1007B00000930210006E021000930210006E0210EF
:1007C0000093021000EE0110004B0210000B02100B
:1007D00000B801080000001000060110004A0110D6
:1007E00000B8011000EE010800000010004A0110DE
:1007F000000B021000EE011000B80108000000100C
:10080000000B0210000B0210000B0210000B020480
:1008100000BA02F0FF93022000930208004B020886
:1008200000A403F0FF7003200070031000100310F9
:1008300000BA021000930210004B0210000B0210CD
:1008400000D2010800B8010800B80120008801208A
:1008500000B8012000EE0120000B0204004B021042
:10086000006E0210009302F8FF93021000BA02100B
:1008700000B80110000B0204004B02F0FFEE012053
:10088000000B02200010032000880120001003202C
:1008900000B801200010032000EE0120001003200A
:1008A000000B022000100320004B02200010032048
:1008B00000930220001003200017042000DC032016
:1008C000007003200010032000BA022000930220D1
:1008D000004B02200010032000BA0220004B02202F
:1008E000000B0220001003200088012000100320CC
:1008F00000B801200010032000EE012000100320AA
:10090000000B022000100320004B022000100320E7
:1009100000930220001003200017042000DC0320B5
:10092000007003200010032000BA02200093022070
:10093000004B02200010032000BA0220004B0220CE
:100940000093022000BA022000930220006E0220D1
:100950000093022000EE012000930220006E02208E
:100960000093022000EE012000930220006E02207E
:10097000009302F8FFEE011000930210006E0210C7
:10098000009302F8FFEE0110009302100000001027
:1009900000000010006E0210009302100000001012
:1009A00000000010006E021000930210006E021092
:1009B0000093021000EE0110004B0210000B021019
:1009C00000B801080000001000060110004A0110E4
:1009D00000B8011000EE010800000010004A0110EC
:1009E000009F011000EE0110000B02080000001033
:1009F000004A011000930210006E021000930210D2
:100A0000006E02100093021000EE0110004B021065
:100A1000000B021000B801080000001000060110D1
:100A2000004A011000B8011000EE0108000000109B
:100A3000004A0110000B021000EE011000B801087E
:100A40000000001000EE0110000B0210004B02101D
:100A5000009302F8FF88011000BA02100093021000
:100A6000004B02F8FF5D011000930210004B0210D2
:100A7000000B02F8FF4A0110004B0210000B02109D
:100A800000EE010800000010004A0110009302105F
:100A90000000001000000010009302100027051055
:100AA0000000001000000010006E02100093021001
:100AB0000000001000000010006E021000930210F1
:100AC000004B021000930210006E021000930210FF
:100AD00000EE0110004B0210000B021000B80108DC
:100AE0000000001000060110004A011000B80110BB
:100AF00000EE010800000010004A0110009F0110E4
:100B000000EE0110000B020800000010004A011066
:100B100000930210006E021000930210006E02108B
:100B20000093021000EE0110004B0210000B0210A7
:100B300000B801080000001000060110004A011072
:100B400000B8011000EE010800000010004A01107A
:100B5000000B021000EE011000B8010800000010A8
:100B60000000001000000008002A02FCFF4B0204F5
:100B70000093021000BA021000BA020400BA020880
:100B8000009302FCFF4B0204000B021000EE011068
:100B900000B8010400B8010800B80108000B020801
:100BA00000EE010800B801FCFF2A02FCFF4B020422
:100BB0000093021000BA021000BA020400BA020840
:100BC00000BA02FCFF6E0204004B0210000B021080
:100BD00000D2010400B80108009F01040088010848
:100BE00000B801FCFFEE01040000000800DC00E09A
:100BF000FF0601E0FF4A01E0FFB801E0FF0B02E061
:100C0000FF9302E0FF4B02E0FF0B02E0FFEE01E08A
:100C1000FFB801E0FF0B02E0FF9302E0FF7003E08A
:100C2000FF1704E0FF2705E0FF9704E0FF1704E04B
:100C3000FFDC03E0FFB801E0FF0B02E0FF9302E0FE
:100C4000FF7003E0FF1704E0FF2705E0FF9704E0D3
:100C5000FF1704E0FFDC03E0FFA403E0FF7003E004
:100C6000FF3F03E0FF1003E0FFE402E0FFBA02E011
:100C7000FF9302E0FF6E02E0FF4B02E0FF2A02E07A
:100C8000FF0B02E0FFEE01E0FFD201E0FFB801E060
:100C9000FF9F01E0FF8801E0FF7201E0FF5D01E0DE
:100CA000FF4A0110006E02100093021000EE0110C6
:100CB000004B0210000B021000B801F8FF060110F3
:100CC000004A011000B8011000EE01F8FF4A0110BF
:100CD000009F011000EE0110000B02080000001040
:100CE000004A011000930210006E021000930210DF
:100CF000006E02100093021000EE0110004B021073
:100D0000000B021000B801F8FF060110004A0110A4
:100D100000B8011000EE01F8FF4A0110000B0210AC
:100D200000EE011000B801F8FF0000F8FF0000F825
:100D3000FF88011000BA021000930210004B020459
:100D400000000008000000F8FF4A0110004B0210EC
:100D5000000B021000EE01F8FF4A01100093020898
:100D600000930208002705F8FF6E0210009302109E
:100D70000000001000000010006E0210009302102E
:100D8000006E021000930210006E02100093021019
:100D900000EE0110004B0210000B021000B801F829
:100DA000FF060110004A011000B8011000EE01F822
:100DB000FF4A0110009F011000EE0110000B020815
:100DC00000000010004A011000930210006E021093
:100DD00000930210006E02100093021000EE01104A
:100DE000004B0210000B021000B801F8FF060110C2
:100DF000004A011000B8011000EE01F8FF4A01108E
:100E0000000B021000EE011000B801FCFF520008B8
:100E10000052000800A50008005200080052000817
:100E200000930008005200080052000800830008E8
:100E30000052000800520008007500080052000827
:100E400000520008007B00080083000800520008E0
:100E50000052000800A500080052000800520008D7
:100E600000930008005200080052000800830008A8
:100E70000052000800520008007500FEFF520008F2
:100E80000052000800A500080052000800520008A7
:100E90000093000800520008005200080083000878
:100EA00000520008005200080075000800520008B7
:100EB00000520008007B0008008300080052000870
:100EC0000052000800A50008005200080052000867
:100ED0000093000800520008005200080083000838
:100EE0000052000800520008007500FEFF52000882
:100EF0000052000800A50008005200080052000837
:100F00000093000800520008005200080083000807
:100F10000052000800520008007500080052000846
:100F200000520008007B00080083000800520008FF
:100F30000052000800A500080052000800520008F6
:100F400000930008005200080052000800830008C7
:100F50000052000800520008007500FEFF52000811
:100F60000052000800A500080052000800520008C6
:100F70000093000800520008005200080083000897
:100F800000520008005200080075000800520008D6
:100F900000520008007B000800830008005200088F
:100FA0000052000800A50008005200080052000886
:100FB00000930008005200080052000800B900F039
:100FC000FF9300F0FF7B00F0FFDC00F0FFB900F0C2
:100FD000FF7B00F0FF9300F0FFB900F0FFDC00F0B2
:100FE000FFB900F0FF9300F0FF7B00F0FF52000814
:100FF0000052000800A50008005200080052000836
:101000000093000800520008005200080083000806
:101010000052000800520008007500080052000845
:1010200000520008007B00080083000800520008FE
:101030000052000800A500080052000800520008F5
:1010400000930008005200080052000800830008C6
:101050000052000800520008007500FEFF52000810
:101060000052000800A500080052000800520008C5
:101070000093000800520008005200080083000896
:1010800000520008005200080075000800520008D5
:1010900000520008007B000800830008005200088E
:1010A0000052000800A50008005200080052000885
:1010B00000930008005200080052000800F700F0FA
:1010C000FFC400F0FFA500F0FFC400F0FFF700F040
:1010D000FF4A01F0FFC400F0FFF700F0FF4A01F003
:1010E000FFF700F0FF8801F0FFEE01F0FF6E00084F
:1010F000006E000800DC0008006E0008006E0008AA
:1011000000C40008006E0008006E000800AF000870
:10111000006E0008006E0008009C0008006E0008C9
:10112000006E000800A5000800AF0008006E00086F
:10113000006E000800DC0008006E0008006E000869
:1011400000C40008006E0008006E000800AF000830
:10115000006E0008006E0008009C00FEFF6E000894
:10116000006E000800DC0008006E0008006E000839
:1011700000C40008006E0008006E000800AF000800
:10118000006E0008006E0008009C0008006E000859
:10119000006E000800A5000800AF0008006E0008FF
:1011A000006E000800DC0008006E0008006E0008F9
:1011B00000C40008006E0008006E000800DC00F0AB
:1011C000FFAF00F0FF9300F0FFDC00F0FFAF00F096
:1011D000FF9300F0FF0601F0FFDC00F0FFAF00F02E
:1011E000FFDC00F0FFAF00F0FF9300F0FF520008BB
:1011F0000052000800A50008005200080052000834
:101200000093000800520008005200080083000804
:101210000052000800520008007500080052000843
:1012200000520008007B00080083000800520008FC
:101230000052000800A500080052000800520008F3
:1012400000930008005200080052000800830008C4
:101250000052000800520008007500FEFF5200080E
:101260000052000800A500080052000800520008C3
:101270000093000800520008005200080083000894
:1012800000520008005200080075000800520008D3
:1012900000520008007B000800830008005200088C
:1012A0000052000800A50008005200080052000883
:1012B0000093000800520008005200080083000854
:1012C0000052000800520008007500FEFF8B000865
:1012D000008B000800150108008B0008008B000837
:1012E00000F70008008B0008008B000800DC0008F5
:1012F000008B0008008B000800C40008008B000869
:10130000008B000800D0000800DC0008007B00080B
:10131000007B000800F70008007B0008007B000845
:1013200000DC0008007B0008007B000800C4000807
:10133000007B0008007B000800AF00FEFF520008A1
:101340000052000800A500080052000800520008E2
:1013500000930008005200080052000800830008B3
:1013600000520008005200080075000800520008F2
:1013700000520008007B00080083000800520008AB
:101380000052000800A500080052000800520008A2
:1013900000930008005200080052000800F700F017
:1013A000FFC400F0FFA500F0FFC400F0FFF700F05D
:1013B000FF4A01F0FFC400F0FFF700F0FF4A01F020
:1013C000FFF700F0FF8801F0FFEE01F0FF52000888
:1013D0000052000800A50008005200080052000852
:1013E0000093000800520008005200080083000823
:1013F0000052000800520008007500080052000862
:1014000000520008007B000800830008005200081A
:101410000052000800A50008005200080052000811
:1014200000930008005200080052000800830008E2
:101430000052000800520008007500FEFF5200082C
:101440000052000800A500080052000800520008E1
:1014500000930008005200080052000800830008B2
:1014600000520008005200080075000800520008F1
:1014700000520008007B00080083000800520008AA
:101480000052000800A500080052000800520008A1
:1014900000930008005200080052000800B900F054
:1014A000FF9C00F0FF7B00F0FFB900F0FF9C00F014
:1014B000FF7B00F0FFC400F0FF9300F0FF7B00F023
:1014C000FF3701F0FF9C00F0FF7B00F0FF520008A7
:1014D0000052000800A50008005200080052000851
:1014E0000093000800520008005200080083000822
:1014F0000052000800520008007500080052000861
:1015000000520008007B0008008300080052000819
:101510000052000800A50008005200080052000810
:1015200000930008005200080052000800830008E1
:101530000052000800520008007500FEFF5200082B
:101540000052000800A500080052000800520008E0
:1015500000930008005200080052000800830008B1
:1015600000520008005200080075000800520008F0
:1015700000520008007B00080083000800520008A9
:101580000052000800A500080052000800520008A0
:10159000009300080052000800520008004A01F0C1
:1015A000FFF700F0FFC400F0FF8801F0FF4A01F0F0
:1015B000FFC400F0FFF700F0FF2601F0FF4A01F042
:1015C000FF8801F0FF4A01F0FFC400F0FF5200085D
:1015D0000052000800A50008005200080052000850
:1015E0000093000800520008005200080083000821
:1015F0000052000800520008007500080052000860
:1016000000520008007B0008008300080052000818
:101610000052000800A5000800520008005200080F
:1016200000930008005200080052000800830008E0
:101630000052000800520008007500FEFF6E00080E
:10164000006E000800DC0008006E0008006E000854
:1016500000C40008006E0008006E000800AF00081B
:10166000006E0008006E0008009C0008006E000874
:10167000006E000800A5000800AF0008006E00081A
:10168000006E000800DC0008006E0008006E000814
:1016900000C40008006E0008006E000800DC00F0C6
:1016A000FFAF00F0FF9300F0FFDC00F0FFAF00F0B1
:1016B000FF9300F0FF0601F0FFDC00F0FFAF00F049
:1016C000FFDC00F0FFAF00F0FF9300F0FF520008D6
:1016D0000052000800A5000800520008005200084F
:1016E0000093000800520008005200080083000820
:1016F000005200080052000800750008005200085F
:1017000000520008007B0008008300080052000817
:101710000052000800A5000800520008005200080E
:1017200000930008005200080052000800830008DF
:101730000052000800520008007500FEFF52000829
:101740000052000800A500080052000800520008DE
:1017500000930008005200080052000800830008AF
:1017600000520008005200080075000800520008EE
:1017700000520008007B00080083000800520008A7
:101780000052000800A5000800520008005200089E
:10179000009300080052000800520008008300086F
:1017A0000052000800520008007500FEFF520008B9
:1017B0000052000800A5000800520008005200086E
:1017C000009300080052000800520008008300083F
:1017D000005200080052000800750008005200087E
:1017E00000520008007B0008008300080052000837
:1017F0000052000800A5000800520008005200082E
:1018000000930008005200080052000800830008FE
:101810000052000800520008007500FEFF52000848
:101820000052000800A500080052000800520008FD
:1018300000930008005200080052000800830008CE
:10184000005200080052000800750008005200080D
:1018500000520008007B00080083000800520008C6
:101860000052000800A500080052000800520008BD
:1018700000930008005200080052000800F700F032
:10188000FFC400F0FFA500F0FF7B00F0FFA500F013
:10189000FFC400F0FF0601F0FFF700F0FFC400F006
:1018A000FFF700F0FFC400F0FFA500F0FF0000020A
:1018B0000093020800930208000000080093020849
:1018C00000000008000B0208009302080010030447
:1018D000000000040088010800000004000B02FC66
:1018E000FF88010800000004004A01FCFFB8010461
:1018F00000EE010400D2010800B80104008801F8DC
:10190000FF9302F8FF1003F8FF70030400BA020807
:10191000001003080000000800930204000B0208F6
:10192000004B020800EE01FCFF0B02FCFF880108DF
:1019300000000004004A01FCFFB8010400EE0104AD
:1019400000D2010800B80104008801F8FF9302F8F2
:10195000FF1003F8FF70030400BA02080010030828
:101960000000000800930204000B0208004B02086C
:1019700000EE01FCFF0000040010030800E4020870
:1019800000BA0208006E020400930208000000087A
:10199000009F010800B801080006010800000008C7
:1019A00000B80108000B0208004B02080000000408
:1019B000006E020400000008004B02FCFF0B020254
:1019C00000000002000000040010030800E4020808
:1019D00000BA0208006E020400930208000000082A
:1019E000009F010800B80108000601080000000877
:1019F00000B80108000B0208004B020800000004B8
:101A0000006E020400000008004B02FCFF0B020203
:101A100000000002000B0208000B0204000B020889
:101A200000000008000B0208004B020400930208AB
:101A3000000B020400B8010800880102000B020834
:101A4000000B0204000B020800000008000B020853
:101A5000004B02080093020800000001000B02087E
:101A6000000B0204000B020800000008000B020833
:101A7000004B020400930208000B020400B80108A6
:101A80000088010200930208009302080000000889
:101A90000093020800000008000B020800930204F3
:101AA000001003040000000400880104000000048A
:101AB000000B02FCFF88010800000004004A01FC42
:101AC000FFB8010400EE010400D2010800B80104CF
:101AD000008801F8FF9302F8FF1003F8FF70030479
:101AE00000BA020800100308000000080093020476
:101AF000000B0208004B020800EE01FCFF0B02FC89
:101B0000FF88010800000004004A01FCFFB801043E
:101B100000EE010400D2010800B80104008801F8B9
:101B2000FF9302F8FF1003F8FF70030400BA0208E5
:101B3000001003080000000800930204000B0208D4
:101B4000004B020800EE01FCFF930208000B0204A8
:101B50000088010800000004009F010400B801088B
:101B600000BA020400BA020800B80102004B02F8F1
:101B7000FF7003F8FF7003F8FF7003F8FF1003F81D
:101B8000FFBA02F8FF930208000B020400B8010834
:101B90000088010200930208000B0204008801087B
:101BA00000000004009F010400B8010800BA02040C
:101BB00000BA020800B8010200EE010800BA0204EF
:101BC00000BA020800BA02F8FF9302F8FF4B02F8CD
:101BD000FF0B0208004A0104004A01080006010246
:101BE00000930208000B02040088010800000004B2
:101BF000009F010400B8010800BA020400BA0208FC
:101C000000B80102004B02F8FF7003F8FF7003F800
:101C1000FF7003F8FF1003F8FFBA02F8FF93020801
:101C2000000B020400B801080088010200930208BA
:101C3000000B02040088010800000004009F01045A
:101C400000B8010800BA020400BA020800B8010294
:101C500000EE010800BA020400BA020800BA02F855
:101C6000FF9302F8FF4B02F8FF0B0208004A010441
:101C7000004A010800060102000B0208000B0204E2
:101C8000000B020800000008000B0208004B0208CD
:101C90000093020800000001000B0208000B020480
:101CA000000B020800000008000B0208004B0204B1
:101CB00000930208000B020400B80108008801022A
:101CC0000093020800930208000000080093020835
:101CD00000000008000B0208009302040010030437
:101CE00000000004008801040000000400930208C2
:101CF000000B02040088010800000004009F01049A
:101D000000B8010800BA020400BA020800B80102D3
:101D1000004B02F8FF7003F8FF7003F8FF7003F840
:101D2000FF1003F8FFBA02F8FF930208000B020449
:101D300000B801080088010200930208000B0204A9
:101D40000088010800000004009F010400B8010899
:101D500000BA020400BA020800B8010200EE01084D
:101D600000BA020400BA020800BA02F8FF9302F8AF
:101D7000FF4B02F8FF0B0208004A0104004A010869
:101D800000060102000B02FCFF8801FCFF4A01046F
:101D900000B801F8FFEE01F8FFB801F8FF9F01F865
:101DA000FFD201F8FF9F01F8FF8801080026010813
:101DB000004A01FEFFD201FEFF5D0108005D01083F
:101DC00000D20108009F011000720110009F01FE67
:101DD000FFD201FEFF7201080072010800D2010863
:101DE00000B801100088011000B801FEFF000001DA
:101DF00000D20104005D01FCFFD2010800D20110F5
:101E0000000B0210004B0210006E021000BA02021A
:101E100000BA020800BA020800BA020800E4021080
:101E2000003F031000A403FEFFA4030800A403085E
:101E3000003F030800E40210003F03F8FFE4021033
:101E400000BA020200BA0204006E02F8FFBA0210E1
:101E500000E4020200BA0208006E0208002A02F83A
:101E6000FF6E021000BA0202006E0208002A020889
:101E7000000B02F8FF4B021000930202001003084F
:101E800000BA0210005D0110005D0110005D01103C
:101E9000005D0110005D0110005D0110005D01108A
:101EA000005D0108005D0110005D010800D2010421
:101EB000005D01FCFFD2010800D20110000B0210EE
:101EC000004B0210006E021000BA020200BA0208B3
:101ED00000BA020800BA020800E40210003F031032
:101EE00000A403FEFF55040400170404007003025D
:101EF00000BA020400E402FEFFA40304007003041D
:101F000000BA020200BA020400E402FEFFA40304C5
:101F10000070030400BA0202004B0204006E02FECD
:101F2000FFE4020400BA0204002A020200D2010403
:101F3000000B02F8FF4B021000930202001003088E
:101F400000BA0210005D0110005D0110005D01107B
:101F5000005D0110005D0110005D0110005D0110C9
:101F6000005D0108005D0110005D010800E4020849
:101F700000E40208004B020800EE0108000000081F
:101F800000EE0108000000080093020800000008AD
:101F9000009302080000000800930208003F0308B5
:101FA000003F03080070030800DC0308007003080A
:101FB0000070030800700308009302080000000886
:101FC000004B02080000000800E4020800000008BE
:101FD00000E402080000000800E402080093020880
:101FE0000093020800E402080093020800E40208DB
:101FF00000E40208004B020800EE0108000000089F
:1020000000EE01080000000800930208000000082C
:10201000009302080000000800930208003F030834
:10202000003F03080070030800DC03080070030889
:102030000070030800700308009302080000000805
:10204000004B02080000000800E40208000000083D
:1020500000E402080000000800E4020800930208FF
:102060000093020800E402080093020800E402085A
:1020700000E40208004B020800EE0108000000081E
:1020800000EE0108000000080093020800000008AC
:10209000009302080000000800930208003F0308B4
:1020A000003F03080070030800DC03080070030809
:1020B0000070030800700308009302080000000885
:1020C000004B02080000000800E4020800000008BD
:1020D00000E402080000000800E40208009302087F
:1020E0000093020800E402080093020800000002C6
:1020F000004B020800EE0104004B0208002A020413
:10210000004B0208002A020400B801020000000887
:1021100000B8010800E4020800930204004B020822
:10212000002A0204004B0208002A020400B801023F
:1021300000000004004B020800EE0104004B0208FE
:10214000002A0204004B0208002A020400B801021F
:102150000000000800EE010800EE010800880104FC
:1021600000EE010800B8010400EE010800B8010407
:102170000026010200000004004B020800EE0104EA
:10218000004B0208002A0204004B0208002A020445
:1021900000B801020000000800B8010800E40208CD
:1021A00000930204004B0208002A0204004B0208BC
:1021B000002A020400B8010200000004004B0208DB
:1021C00000EE0104004B0208002A0204004B020842
:1021D000002A020400B801020000000800EE010815
:1021E00000EE01080088010400EE010800B80104B7
:1021F00000EE010800B801040026010800260108CD
:1022000000720108004A01FFFF00000800260108D3
:10221000004A0108007201FFFF00000800260108C3
:102220000026010800720108005D01FFFF000008A0
:1022300000260108005D0108004A01FFFF000002BE
:10224000004B020800EE0104004B0208002A0204C1
:10225000004B0208002A020400B801020000000836
:1022600000B8010800E4020800930204004B0208D1
:10227000002A0204004B0208002A020400B80102EE
:1022800000000004004B020800EE0104004B0208AD
:10229000002A0204004B0208002A020400B80102CE
:1022A0000000000800EE010800EE010800880104AB
:1022B00000EE010800B8010400EE010800B80104B6
:1022C0000026010200000004004B020800EE010499
:1022D000004B0208002A0204004B0208002A0204F4
:1022E00000B801020000000800B8010800E402087C
:1022F00000930204004B0208002A0204004B02086B
:10230000002A020400B8010200000004004B020889
:1023100000EE0104004B0208002A0204004B0208F0
:10232000002A020400B801020000000800EE0108C3
:1023300000EE01080088010400EE010800B8010465
:1023400000EE010800B8010400260108002601087B
:1023500000720108004A01FFFF0000080026010882
:10236000004A0108007201FFFF0000080026010872
:102370000026010800720108005D01FFFF0000084F
:1023800000260108005D0108004A0108004A01FE1C
:10239000FFB80108002A020800E4020800930204C2
:1023A000004B0208007003FCFFEE011000DC03107C
:1023B00000E40210006E021000DC032000E402F0D2
:1023C000FF6E0208000B0210001704100020061018
:1023D0000027051000170420002006F0FF2705083D
:1023E00000EE011000DC031000E40210006E021089
:1023F00000DC032000E402F0FF6E0208006E022001
:102400000093022000BA022000BA022000E4022059
:102410000010032000100320003F03200070031071
:1024200000DC0308004B02FCFF9302FCFFB8010430
:10243000009302FCFFE402FCFF7003100010031085
:1024400000E40208004B02FCFF9302FCFFB801020B
:1024500000B8011000B8011000EE0110004B020896
:10246000004B0210004B02FCFF9302FCFFB801047A
:10247000009302FCFFE402FCFF7003100010031045
:1024800000E40208004B02FCFF9302FCFFB80102CB
:1024900000B8011000B8011000EE0110004B020856
:1024A000004B02100000000400EE0108002A0208A0
:1024B000004B0208004B020800930208002A02F8B1
:1024C000FFEE011000B80102000000040000000847
:1024D00000EE010800EE0108002A0208004B020885
:1024E00000EE010400B801080070030800000008B5
:1024F00000700308009302FCFF00000400EE0108D6
:1025000000EE0108002A0208004B020800EE010854
:10251000004B0208009302080000000800000008B9
:10252000002A020800EE010800B801FCFF000004C8
:102530000000000800EE010800EE0108002A020871
:10254000004B020800EE010800B8010400930208E5
:10255000009302080093020800E4020800930204BA
:1025600000000004004B02020093020800E402088D
:10257000004B02080093020800930208009302082F
:1025800000E402080093020400B801040000000205
:1025900000EE0108002A0208004B020800EE0108C4
:1025A000000000080093020800E40208009302FC07
:1025B000FFB8011000EE0110004B021000EE0110F8
:1025C00000E402F8FFE402F8FF9302FCFFB80110F8
:1025D00000EE0110004B021000EE0110009302F813
:1025E000FF9302F8FF4B02F8FF2A021000EE01F8F9
:1025F000FFB8011000EE0110004B021000EE0110B8
:10260000004B020400930208002A02F8FFEE0110BA
:1026100000B8010800B8010800B8010800930204DE
:10262000004B020200B8011000EE0110004B021036
:1026300000EE011000E402F8FFE402F8FF9302FC50
:10264000FFB8011000EE0110004B021000EE011067
:1026500000700304002A0208004B02F8FF2A02104F
:1026600000EE010800B8011000EE0110004B02104E
:1026700000EE0110004B020400930208002A02F849
:10268000FFEE011000B8010400B801080093020435
:10269000004B0202000000040000000800EE0108E8
:1026A000004B020800EE0108004B020800930204F0
:1026B0000000000800000008002A020800EE0108DF
:1026C00000B801FCFF0000040000000800EE010853
:1026D00000EE0108002A0208004B020800EE010883
:1026E00000B801040000000800700308007003082F
:1026F0000093020800E4020800930208004B02085D
:102700000000000800B8010800EE0108002A0208D5
:10271000004B020800EE010800000008002A020831
:1027200000EE010800B801FCFF00000400EE010803
:1027300000EE0108002A0208004B020800EE010822
:1027400000B801040000000800000008009302081F
:102750000093020800E40204009302FCFF4B020213
:10276000004B02080093020800E4020800930204F0
:10277000009302080093020800E402080093020894
:1027800000B8010800B80104000000FCFFB801080F
:1027900000EE0108002A0208004B020800EE0108C2
:1027A000000000080093020800E40208009302FC05
:1027B000FFB8011000EE0110004B021000EE0110F6
:1027C00000E402F8FFE402F8FF9302FCFFB80110F6
:1027D00000EE0110004B021000EE0110009302F811
:1027E000FF9302F8FF4B02F8FF2A021000EE0108E7
:1027F00000B8011000EE0110004B021000EE0110B5
:10280000004B020400930208002A02F8FFEE0110B8
:1028100000B8010400B8010800930204004B020252
:1028200000B8011000EE0110004B021000EE011084
:1028300000E402F8FFE402F8FF9302FCFFB8011085
:1028400000EE0110004B021000EE011000700304B6
:10285000002A0208004B02F8FF2A021000EE0108CD
:1028600000B8011000EE0110004B021000EE011044
:10287000004B020400930208002A02F8FFEE011048
:1028800000B8010400B8010800930204004B0202E2
:1028900000B8011000EE0110004B021000EE011014
:1028A00000E402F8FFE402F8FF9302FCFFB8011015
:1028B00000EE0110004B021000EE01100070030446
:1028C000002A0208004B02F8FF2A021000EE01085D
:1028D00000B8011000EE0110004B021000EE0110D4
:1028E000004B020400930208002A02F8FFEE0110D8
:1028F00000B8010400B8010800930204004B020272
:1029000000B8011000EE0110004B021000EE0110A3
:1029100000E402F8FFE402F8FF9302FCFFB80110A4
:1029200000EE0110004B021000EE011000700304D5
:10293000002A0208004B02F8FF2A021000EE0108EC
:1029400000B8011000EE0110004B021000EE011063
:10295000004B020400930208002A02F8FFEE011067
:1029600000B8010400B8010800930204004B020201
:102970000000000400000002000000040000000845
:1029800000370108004A01FCFF000008007201083E
:10299000008801FCFF00000800370108004A01F828
:1029A000FF720108008801F8FF0B020800EE01F831
:1029B000FF4A0108008801F8FFEE010800D2010279
:1029C00000B801F0FF8801F0FF4A01F0FF2601F096
:1029D000FF4A010200000004000000080037010463
:1029E000004A01FCFF00000800720108008801FC99
:1029F000FF00000800370108004A01F8FF720108D3
:102A0000008801F8FF0B020800EE01F8FF880108BA
:102A100000EE01F8FF930208006E0201004B020273
:102A2000000000040000000800370108004A01FC13
:102A3000FF00000800720108008801FCFF00000888
:102A400000370108004A01F8FF720108008801F808
:102A5000FF0B020800EE01F8FF4A0108008801F8A8
:102A6000FFEE010800D2010200B801F0FF8801F07A
:102A7000FF4A01F0FF2601F0FF4A01FCFF000004BD
:102A800000000004009302F8FF4B020800EE01F87A
:102A9000FFB80108008801F8FF4A01F8FFD20110D1
:102AA00000B801F8FFD2011000B801F8FFD2011000
:102AB00000B801F8FFD2011000B801F8FF8801F05A
:102AC000FF4A01F0FF2601F0FF4A0110004A011001
:102AD000004A0102004A0104004A0104005D0104A9
:102AE0000088010400880104005D0104004A01041B
:102AF000002601040006010400060104002601046A
:102B0000004A0104004A01FCFF26010800260102D8
:102B1000004A0104004A0104005D01040088010428
:102B200000880104005D0104004A0104002601043C
:102B3000000601040006010400260104004A010405
:102B4000002601FCFF060108000601020026010420
:102B500000260104004A01040006010400260104C5
:102B6000004A0108005D0108004A01040006010452
:102B700000260104004A0108005D0108004A010422
:102B800000260104000601040026010400C400021E
:102B9000004A0104004A0104005D010400880104A8
:102BA00000880104005D0104004A010400260104BC
:102BB000000601040006010400260104004A010485
:102BC000002601FCFF0601080006010200000001CA
:102BD0000000000100060104004A0104008801040D
:102BE000004A010400060104004A0108008801FCB3
:102BF000FF4A010400DC000400060104004A01044D
:102C00000006010400DC000400060108004A01FC83
:102C1000FF06010400C4000400F7000400260104BC
:102C200000F7000400C4000400F70008002601FCBF
:102C3000FFF7000400C4000400C4000800C400FC46
:102C4000FFC4000800C4000400C4000400C4000461
:102C500000C4000800C4000400060104004A010486
:102C600000880104004A010400060104004A01082A
:102C7000008801FCFF4A010400DC00040006010496
:102C8000004A01040006010400DC000400060108FB
:102C9000004A01FCFF06010400C4000400F7000420
:102CA0000026010400F7000400C4000400F7000837
:102CB000002601FCFFF7000400C400FFFFDC03F85E
:102CC000FF97041000DC031000E402F8FFDC03109F
:102CD00000E40210004B02F8FFE40210004B021067
:102CE00000EE0104005D011000EE0110004B021027
:102CF00000EE0110002A021000EE0110002A02105E
:102D000000EE011000D20110002A02100093021000
:102D1000002A0210004B020800EE010800DC03F854
:102D2000FF97041000DC031000E402F8FFDC03103E
:102D300000E40210004B02F8FFE40210004B021006
:102D400000EE0104004B0210002A02F0FF4B02F8D3
:102D5000FF4B0210002A02F0FF4B02F8FFDC03F8E1
:102D6000FF4B02F8FF4B0208002A02F8FFE402F0D2
:102D7000FFBA021000E402F8FFE402F0FFBA02100A
:102D800000E402F8FF9704F8FFE402F8FFE4020809
:102D900000BA0208002A021000E4021000700310BA
:102DA00000E40210003F031000E40210003F031093
:102DB00000E4021000BA02100010031000DC03103F
:102DC0000010031000700310003F03100070031088
:102DD0000010031000BA02100070031000E402108B
:102DE00000BA021000E4021000DC031000E402103C
:102DF00000BA021000E402100017041000E40210F0
:102E00000093021000E402100097041000E4021086
:102E100000BA021000E4021000970410001704101A
:102E200000DC03100017041000700310003F0310B3
:102E300000E40210007003080010030800E402041C
:102E40000000000400E402F8FF70031000E4021028
:102E5000002A02FCFFE40210002A021000B801F868
:102E6000FF2A021000B80110005D0104000B0208E7
:102E700000EE010800930208006E021000E4021048
:102E800000700308003F031000E40210003F030835
:102E9000004B0208003F03F8FFDC0310003F03086B
:102EA000009302F8FF3F031000930210002A02F87B
:102EB000FF930210002A021000B8010400B80110AC
:102EC000004B021000E40210004B021000930210AD
:102ED000004B021000930210004B0210002A021057
:102EE00000930210001003100093021000E402107F
:102EF0000093021000E4021000930210004B021035
:102F000000E40210004B0210002A0210004B0210D5
:102F100000100310004B0210002A0210004B021098
:102F200000700310004B0210002A0210004B021028
:102F300000DC0310004B0210002A0210004B0210AC
:102F400000DC031000700310001003100070031069
:102F500000E4021000930210004B021000E402088B
:102F600000930210004B020400E4021000930210D0
:102F700000E402F8FFE402100093021000E402F8FB
:102F8000FF9704F8FFE402F8FFE402080093020848
:102F900000930210004B0210009302F8FF930210FE
:102FA000004B0210009302F8FF9704F8FF9302F819
:102FB000FF930208004B020800DC03F8FF9704109F
:102FC00000DC031000DC03080010030400100304FD
:102FD00000DC0320007003200010032000E4022026
:102FE00000930204009302080010032000E4022072
:102FF00000930220004B0220000B021000930210ED
:103000000010031000930210002A021000EE0110BD
:10301000002A021000B8011000D201F8FFB801F830
:10302000FF880108005D010800B8010800D2011006
:10303000002A021000930208004B0210002A02101E
:10304000004B020800EE0120002A0220004B022063
:103050000093022000E40208004B021000E402107A
:1030600000DC030800E4020800930210004B021089
:10307000002A0210004B0210002A020800EE010490
:10308000002601F8FF880110000B02FCFFEE01088A
:10309000008801F0FF4A01F0FFB801F0FF4B020287
:1030A0000000000200000002000000020000000218
:1030B000008801FCFFB8010800880104004A01FEF5
:1030C000FF8801FCFFB8010800880104004A01FEE6
:1030D000FF4B0202004B020400EE01FEFF0B020256
:1030E000000B0204008801FEFFB8010200B80104D1
:1030F000000B02FCFFEE010800B80104008801FC8F
:10310000FFB8010800880104004A01FEFFB801026F
:1031100000B80104000B02FCFFEE010800B8010436
:10312000008801FCFFB8010800880104004A01FE84
:10313000FF4B0202004B020400BA02FCFF4B0208E4
:1031400000EE0104000B02FEFF9302FEFF0B0204DF
:1031500000880104004A0104008801FCFF5D0108A9
:1031600000260104000601FEFF0601FFFF06010420
:10317000000601080026010400060104005D0104A8
:10318000004A0102000601040006010800260104AD
:103190000006010400880104005D0102000601042C
:1031A00000060108000B020400B80104005D0104E0
:1031B000004A01040026010400D2010400D20108E3
:1031C00000B80104005D010400880104005D0102F3
:1031D000004B02FCFF70030800E40208004B0208E9
:1031E000009302FCFFE402080010030400E402FC68
:1031F000FF93020800E40204004B02FEFF4B02FCB6
:10320000FF70030800E40208004B0208009302FC70
:10321000FFE402080010030400E402FFFF4B02FC7D
:10322000FF70030800E40208004B0208009302FC50
:10323000FFE402080010030400E402FCFF9302080C
:1032400000E40204004B02FEFF4B02FCFF70030887
:1032500000E40208004B0208009302FCFFE40208AD
:103260000010030400E402FFFF0000020026010436
:10327000008801FCFFD2010800B8010400880102A7
:10328000004B0204000B02FEFFB801FEFF8801FCA8
:10329000FFD2010800B80104005D0102009F010493
:1032A000002601FFFF260104008801FCFFD201086F
:1032B00000B8010400880102004B020400BA0202B7
:1032C00000930204006E020200EE0104006E02FC94
:1032D000FF4B0208002A02040015010200EE01045F
:1032E000008801FFFFD20104004B020200D201045A
:1032F000004B020200D20104006E0202004B0204E5
:10330000002A020200B8010400D201FCFF4B0208AF
:10331000002A02040015010200260104004B02FFEE
:10332000FF00000400D20104004B020200D201049D
:10333000004B020200D2010400BA02020093020410
:10334000006E020200EE0104006E02FCFF4B020858
:10335000002A02040015010200D20104008801FFC6
:10336000FF720102004A010200260102001501025B
:1033700000F7000200DC000200F700020015010265
:1033800000720102004A010200260102001501023A
:1033900000F7000200DC000200F700020015010245
:1033A000002601020015010200F7000200DC000205
:1033B00000C4000200B9000200C4000200DC0002E8
:1033C00000260104007201080088010800B8010409
:1033D000007201080088010800B8010400F7000825
:1033E0000015010800260108004A010800720108C2
:1033F000008801080072010400260108004A010843
:103400000072010400B9000800C4000800DC0008D4
:1034100000C4000800B9000800C4000800DC000275
:1034200000C4000400F7000800DC000800C4000429
:1034300000B9000800A5000800B9000400930008C6
:1034400000A5000800B9000800C4000800DC00085E
:1034500000F7000800C4000400F7000800DC0008C2
:1034600000F70004001501080026010800DC000830
:1034700000F700080015010800260108004A0108AD
:10348000007201080088010800B8010200B80104B8
:10349000007201080088010800B8010400720108E8
:1034A0000088010800B8010800DC000800F70008E7
:1034B0000015010800260108004A010800720108F1
:1034C000008801080072010400260108004A010872
:1034D000007201080015010800DC000800DC00088B
:1034E0000015010400F7000400260108001501087A
:1034F00000F7000400DC000800C4000800DC000441
:103500000093000800A5000800B9000800C40008E6
:1035100000DC000800F7000400C4000400F7000805
:1035200000DC000800F7000400150108002601086F
:1035300000DC000800F7000800150108002601085B
:10354000004A0108007201080088010800B8010261
:1035500000000004001003040070030400A403042E
:103560000070030400BA0204007003040010030496
:1035700000000004001003040070030400A403040E
:103580000017040400A403040070030400100304E3
:1035900000000004001003040070030400A40304EE
:1035A0000070030400BA0204007003040010030456
:1035B000009704040000000800170408000000043D
:1035C00000A403040070030400A403080017040807
:1035D000007505080000000800000004001003103A
:1035E000004B021000970410004B0210001704104B
:1035F000004B021000A40310004B021000700310D7
:10360000004B021000A40310004B021000700310C6
:10361000004B021000100310004B0210007003104A
:10362000004B021000A40310004B021000170410FE
:10363000004B021000A40310004B02100070031096
:10364000004B021000BA0210004B02100070031071
:10365000004B021000100310004B0210001003106A
:10366000004B021000970410004B021000170410CA
:10367000004B021000A40310004B02100070031056
:10368000004B021000A40310004B02100070031046
:10369000004B021000A40310004B02100070031036
:1036A000004B021000A40310004B0210001704107E
:1036B000004B021000A40310004B02100070031016
:1036C000004B021000BA0210004B021000700310F1
:1036D000004B021000100310004B021000100310EA
:1036E000004B021000970410004B0210001704104A
:1036F000004B021000A40310004B021000700310D6
:10370000004B021000A40310004B021000700310C5
:10371000004B021000100310004B02100070031049
:10372000004B021000A40310004B021000170410FD
:10373000004B021000A40310004B02100070031095
:10374000004B021000BA0210004B02100070031070
:10375000004B021000100310004B021000A40310D5
:10376000004B021000970410004B021000170410C9
:10377000004B021000A40310004B02100070031055
:10378000004B021000A40310004B02100070031045
:10379000004B021000100310004B021000700310C9
:1037A000004B021000A40310004B0210001704107D
:1037B000004B021000A40310004B02100070031015
:1037C000004B021000BA0210004B021000700310F0
:1037D000004B021000100310004B021000170410E1
:1037E0000017041000750510009704080000001071
:1037F00000000008000000040017041000A40310DB
:10380000001704F8FF7505F8FF9704FCFF1704087C
:1038100000A40308001704080075051000970408A9
:103820000000001000000008000000040017040859
:103830000097040800DD04F8FF7505F8FF9704F809
:10384000FF00001000DD0408000000080017040855
:103850000075051000970408000000100000000823
:10386000000000040017040800A40308001704F86F
:10387000FF7505F8FF9704FCFF17040800A4030870
:1038800000170408007505100097040800000010D8
:103890000000000800000004001704080097040856
:1038A00000DD04F8FF7505F8FF4B020800E402088C
:1038B00000BA020800700308007003F8FF1003FC50
:1038C000FF7003F8FF1003FCFF7003F8FF1003FC08
:1038D000FFA40308007003080010030800BA0208E0
:1038E000007003F8FF1003F8FF4B0208007003F8A4
:1038F000FF1003F8FF4B0208007003F8FF1003F8F5
:10390000FF4B020800A40304001704040070030422
:1039100000A4030400100310004B021000970410D1
:10392000004B021000170410004B021000A40310FB
:10393000004B021000700310004B021000A4031093
:10394000004B021000700310004B02100010031017
:10395000004B021000700310004B021000A4031073
:10396000004B021000170410004B021000A40310BB
:10397000004B021000700310004B021000BA02103E
:10398000004B021000700310004B021000100310D7
:10399000004B021000100310004B0210009704109F
:1039A000004B021000170410004B021000A403107B
:1039B000004B021000700310004B021000A4031013
:1039C000004B021000700310004B021000A4031003
:1039D000004B021000700310004B021000A40310F3
:1039E000004B021000170410004B021000A403103B
:1039F000004B021000700310004B021000BA0210BE
:103A0000004B021000700310004B02100010031056
:103A1000004B021000100310004B0210009704101E
:103A2000004B021000170410004B021000A40310FA
:103A3000004B021000700310004B021000A4031092
:103A4000004B021000700310004B02100010031016
:103A5000004B021000700310004B021000A4031072
:103A6000004B021000170410004B021000A40310BA
:103A7000004B021000700310004B021000BA02103D
:103A8000004B021000700310004B021000100310D6
:103A9000004B021000A40310004B0210009704100A
:103AA000004B021000170410004B021000A403107A
:103AB000004B021000700310004B021000A4031012
:103AC000004B021000700310004B02100010031096
:103AD000004B021000700310004B021000A40310F2
:103AE000004B021000170410004B021000A403103A
:103AF000004B021000700310004B021000BA0210BD
:103B0000004B021000700308001003200070032017
:103B100000A40320001704200097041000100310D5
:103B200000A403100010031000170410001003106D
:103B30000097041000100310001704100010031069
:103B40000070031000100310007505100010031022
:103B500000970410006E0210009704040000000497
:103B6000000B02080000000800B801F0FFD201F0CD
:103B7000FF0B0210009704100088011000D2011002
:103B800000880110000B021000880110009704103B
:103B90000088011000170410005D011000B801102A
:103BA000005D011000BA0210005D011000970410C2
:103BB000003701100097041000000008004A0110AF
:103BC000005D0110009F01080000000800D20108FC
:103BD00000000008006E0210009F011000EE0110AE
:103BE000009F0110002A0210009F0110006E0210B9
:103BF000009F0110002A02100072011000D2011073
:103C00000072011000E4021000720110006E021038
:103C100000930210004B020400000004002A020876
:103C20000000000800D201F0FFEE01F0FF2A0210B0
:103C3000006E0210009F011000EE0110009F0110A5
:103C4000002A0210009F0110006E0210009F011058
:103C5000002A02100072011000D20110007201103F
:103C600000E4021000720110006E021000930210B6
:103C7000006E020400000008006E021000930210A3
:103C800000E40210002A0210009302100015011037
:103C9000006E0210009302100010031000A4031025
:103CA000003F0310006E021000DD0410006E0210D1
:103CB00000550410006E021000DC0310006E0210AC
:103CC00000A40310006E021000DC0310006E02104E
:103CD00000A40310006E0210003F0310006E0210DB
:103CE00000A40310006E021000DC0310006E02102E
:103CF00000550410006E021000DC0310006E02106C
:103D000000A40310006E021000E40210006E021006
:103D100000A40310006E0210003F0310006E02109A
:103D2000003F0310006E021000DD0410006E021050
:103D300000550410006E021000DC0310006E02102B
:103D400000A40310006E021000DC0310006E0210CD
:103D500000A40310006E0210003F0310006E02105A
:103D600000A40310006E021000DC0310006E0210AD
:103D700000550410006E021000DC0310006E0210EB
:103D800000A40310006E021000E40210006E021086
:103D900000A40310006E0210003F0310006E02101A
:103DA000003F0310006E021000DD0410006E0210D0
:103DB00000550410006E021000DC0310006E0210AB
:103DC00000A40310006E021000DC0310006E02104D
:103DD00000A40310006E0210003F0310006E0210DA
:103DE00000A40310006E021000DC0310006E02102D
:103DF00000550410006E021000DC0310006E02106B
:103E000000A40310006E021000E40210006E021005
:103E100000A40310006E0210003F0310006E021099
:103E2000003F0310006E021000DD0410006E02104F
:103E300000550410006E021000DC0310006E02102A
:103E400000A40310006E021000DC0310006E0210CC
:103E500000A40310006E0210003F0310006E021059
:103E600000A40310006E021000DC0310006E0210AC
:103E700000550410006E021000DC0310006E0210EA
:103E800000A40310006E021000E40210006E021085
:103E900000A40310006E0210003F0310006E021019
:103EA0000055040800C8051000DD040800000010DB
:103EB00000000008000000040055040800DC0308AE
:103EC000005504F8FFC805F8FFDD04FCFF550408A1
:103ED00000DC03080055040800C8051000DD0408D4
:103EE0000000001000000008000000040055040855
:103EF00000DC0308002705F8FF7505F8FFDD04F86E
:103F0000FF0000100027050800000010000000104E
:103F10000055040800C8051000DD0408000000106A
:103F200000000008000000040055040800DC03083D
:103F3000005504F8FFC805F8FFDD04FCFF55040830
:103F400000DC03080055040800C8051000DD040863
:103F5000000000100000000800000004002A020811
:103F6000006E0208009302F8FFBA02F8FF6E020822
:103F700000100308003F030800A4030800A403F88E
:103F8000FF3F03F8FFA403F8FF3F03F8FFA403F883
:103F9000FF3F03F8FFB8070800A40308003F030829
:103FA00000E4020800A403F8FF7D06F8FF6E020893
:103FB00000A403F8FF7D06F8FF6E020800A403F8D2
:103FC000FF7D06F8FF6E020800DC030800550408B8
:103FD00000A4030800DC0308003F030800000008F9
:103FE00000000010004B02040088010800B801081E
:103FF00000EE0108000B0208004B020400880104D7
:104000000088010400930204000B0208004B020820
:104010000093020800E40208001003040088010471
:1040200000880104000B0204004B0208000B020888
:1040300000EE010800B8010800EE0104000B0208C0
:1040400000EE010800B801080088010800720104B0
:104050000088010800B8010800EE01080088010886
:1040600000B801FEFF4B02040088010800B80108F7
:1040700000EE0108000B0208004B02040088010456
:104080000088010400930204000B0208004B0208A0
:104090000093020800E402080010030400880104F1
:1040A00000880104000B0204004B0208000B020808
:1040B00000EE010800B8010800EE0104000B020840
:1040C00000EE010800B801080088010800B80104EA
:1040D00000EE010800B8010800880108007201081C
:1040E000008801FEFF4B02040088010800B80108A7
:1040F00000EE0108000B0208004B020400880104D6
:104100000088010400930204000B0208004B02081F
:104110000093020800E40208001003040088010470
:1041200000880104000B0204004B0208000B020887
:1041300000EE010800B8010800EE0104000B0208BF
:1041400000EE010800B801080088010800720104AF
:104150000088010800B8010800EE01080088010885
:1041600000B801FEFF4B02040088010800B80108F6
:1041700000EE0108000B0208004B02040088010455
:104180000088010400930204000B0208004B02089F
:104190000093020800E402080010030400880104F0
:1041A00000880104000B0204004B0208000B020807
:1041B00000EE010800B8010800EE0104000B02083F
:1041C00000EE010800B801080088010800B80104E9
:1041D00000EE010800B8010800880108007201081B
:1041E000008801FEFFDC03040010030800700308D0
:1041F00000DC03080010030800700304004B0208F1
:104200000093020800E40208004B020800100304B7
:104210000093020800E4020800100308004B0208A3
:10422000002A020400EE0108002A020800B8010476
:1042300000B8010800EE0108002A0208004B02083D
:104240000093020800E402080010030400E40204E2
:104250000093020400E4020400B80104002A0204EE
:10426000004B02FEFF4B02040088010800E4020834
:10427000008801040093020400880108007201080C
:1042800000880104004B0204000B020400EE01044C
:1042900000B80108008801080072010800880108C0
:1042A00000B8010400260108004A01080072010854
:1042B0000088010800B8010800EE0108000B0204A4
:1042C00000EE010400B8010400EE0108004B0208F2
:1042D0000088010400720104008801FEFF26010429
:1042E00000B8010400B8010400000008004A0108F9
:1042F00000EE0102005D0104000B0204000B020449
:1043000000000008004A010800EE01020026010436
:1043100000B8010400B8010400000008004A0108C8
:1043200000EE0102005D0104000B0204000B020418
:1043300000000008004A010800EE01020026010802
:10434000005D0108004B020200260108005D010823
:10435000004B0202009302FCFFBA0208009302081D
:104360000093020800930208000B020800B8010243
:1043700000B8010400260104005D0108008801085E
:1043800000B801FEFFB8010400260104005D010829
:1043900000880108004A01FEFF260108005D0108AF
:1043A000004B020200260108005D0108004B0202DA
:1043B000009302FCFFBA020800930208009302086F
:1043C00000930208000B020800B8010200B80104C3
:1043D00000260104005D01080088010800B8010200
:1043E00000B80104002601010093021000930208A6
:1043F000004B021000000010002A02FCFF4A0108D6
:10440000007201100088011000B8011000EE01F8E0
:10441000FF4A01F8FFEE010800B80110004B02FC52
:10442000FF93021000930208004B021000000010DE
:10443000002A02FCFF4A01080072011000880110E6
:1044400000B8011000EE01F8FF4A01F8FFEE010884
:1044500000B80110002601FCFF00000800930208CC
:104460000000001000DC03100000000800A403108E
:1044700000DC031000A4031000100310000000046F
:1044800000DC030800DC031000A40310000000108F
:1044900000A40310007003100000001000DC0310E3
:1044A0000010031000DC031000A403100000001033
:1044B00000DC03100070031000100310000000085F
:1044C000009302080000001000DC03100000000848
:1044D00000A4031000DC031000A40310001003105C
:1044E0000000000400DC030800DC031000A403103B
:1044F0000000001000A40310007003100000001062
:1045000000DC03100010031000DC031000A40310F3
:104510000000001000DC03100070031000100310F6
:10452000003701F8FF7201F8FF0B020800EE01F8F6
:10453000FF8801F8FF4A0108003701F8FF7201F80F
:10454000FF0B020800EE01F8FF8801F8FF000008E9
:10455000003701F8FF7201F8FF0B020800EE01F8C6
:10456000FF8801F8FF4A0108003701F8FF7201F8DF
:10457000FF0B020800EE01F8FF2A02F8FF6E0208A6
:104580000093021000930210004A0110004A01FE3D
:10459000FF06010800060108004A0110008801F822
:1045A000FF260108002601080072011000B801F87A
:1045B000FF93021000930210004A0110004A01FE0E
:1045C000FF06010800060108004A0110008801F8F2
:1045D000FF2601080026010800F70010002601F858
:1045E000FF93021000930208004B0210000000101D
:1045F000002A02FCFF4A0108007201100088011025
:1046000000B8011000EE01F8FF4A01F8FFEE0108C2
:1046100000B80110004B02FCFF9302100093020847
:10462000004B021000000010002A02FCFF4A0108A3
:10463000007201100088011000B8011000EE01F8AE
:10464000FF4A01F8FFEE010800B80110002601FC46
:10465000FF000008009302080000001000DC0310B7
:104660000000000800A4031000DC031000A40310E5
:10467000001003100000000400DC030800DC03103D
:1046800000A403100000001000A403100070031029
:104690000000001000DC03100010031000DC031009
:1046A00000A403100000001000DC031000700310D1
:1046B0000010031000000008009302080000001022
:1046C00000DC03100000000800A4031000DC03104D
:1046D00000A40310001003100000000400DC030815
:1046E00000DC031000A403100000001000A403105D
:1046F000007003100000001000DC03100010031015
:1047000000DC031000A403100000001000DC031004
:104710000070031000100310003701F8FF7201F859
:10472000FF0B020800EE01F8FF8801F8FF4A0108BC
:10473000003701F8FF7201F8FF0B020800EE01F8E4
:10474000FF8801F8FF000008003701F8FF7201F848
:10475000FF0B020800EE01F8FF8801F8FF4A01088C
:10476000003701F8FF7201F8FF0B020800EE01F8B4
:10477000FF2A02F8FF6E0208009302100093021055
:10478000004A0110004A01FEFF0601080006010868
:10479000004A0110008801F8FF26010800260108E0
:1047A0000072011000B801F8FF930210009302108C
:1047B000004A0110004A01FEFF0601080006010838
:1047C000004A0110008801F8FF26010800260108B0
:1047D00000F70010002601F8FF880104008801049A
:1047E00000D201FCFF8801080088010400D2010406
:1047F000000000040088010800D20108006E0204D5
:10480000004B02FCFF0B0208000B020400D2010463
:10481000005D010800880108009F0104005D01049B
:10482000005D010800880108009F010400000004E9
:10483000005D0108009F0108004B0208000B020800
:1048400000D20104004B0204006E020400000004C8
:104850000037010800370108006E0202000B020851
:10486000009F010800D201020088010800370108FA
:10487000009F010400D20104000B020400D20102D7
:104880000037010800370108006E0202000B020821
:10489000009F010800D201020088010800370108CA
:1048A00000D201040088010400370104003701022E
:1048B000007201080000000800B80108002A020880
:1048C0000000000800B8010800000008007201089C
:1048D0000026010800260108002601080000000843
:1048E000000000040000000800150108002601086F
:1048F0000072010800B80108002A02080000000840
:1049000000B8010800000008005D0108009302FCE7
:10491000FF6E0208004B02080000000800000004BF
:10492000009F010800000008002A02080072010828
:1049300000000008002A020800000008009F01088B
:1049400000000008002A020800880108007201081F
:1049500000000008004A010800000008004A0108A1
:10496000004A0108004A0108000000080000000495
:10497000004A0108004A0108004A01080000000836
:104980000000000400370108002601080015010896
:104990000000000800B80108002A02080000000812
:1049A00000B8010800000008007201080026010894
:1049B00000260108002601080000000800930208F4
:1049C000009302080093020800000008000000089D
:1049D0000072010800B80108002A0208000000085F
:1049E00000B8010800000008005D01080093020201
:1049F000004B0208000000080000000400EE01085F
:104A000000880108002601080015010400EE0108D5
:104A1000008801080015010800B8010800720108AB
:104A20000006010800F70004005D010800260108E7
:104A300000F70008004A0108004A0108004A01087E
:104A4000000000040000000400D20104002A020853
:104A5000004B020800E40208007003080000000890
:104A6000000000040000000200DC000400E9000473
:104A700000DC00FCFFDC000800DC00020000000499
:104A800000DC000800E9000800DC0008005D01040B
:104A90000006010800DC00FCFFDC000800DC00026E
:104AA0000000000200F7000400060104001501FCEC
:104AB000FF060108001501020000000400150108AE
:104AC0000006010800150108009F010400370108D5
:104AD000001501FCFF37010800F70001004A01043E
:104AE000004A0104004A01040000000800720108A5
:104AF0000000000800B80108002A020800000008B1
:104B000000B8010800000008007201080026010832
:104B1000002601080026010800000008000000042B
:104B200000000008001501080026010800720108B5
:104B300000B80108002A02080000000800B80108B7
:104B400000000008005D0108009302FCFF6E0208EF
:104B5000004B02080000000800000004009F01084C
:104B600000000008002A0208007201080000000886
:104B7000002A020800000008009F01080000000849
:104B8000002A0208008801080072010800000008DD
:104B9000004A010800000008004A0108004A010814
:104BA000004A01080000000800000004004A010853
:104BB000004A0108004A0108000000080000000443
:104BC0000037010800260108001501080000000850
:104BD00000B80108002A02080000000800B8010817
:104BE00000000008007201080026010800260108E4
:104BF0000026010800000008009302080093020844
:104C0000009302080000000800000008007201087C
:104C100000B80108002A02080000000800B80108D6
:104C200000000008005D010800930202004B02082A
:104C3000000000080000000400EE010800880108E0
:104C4000002601080015010400EE01080088010893
:104C50000015010800B801080072010800060108EB
:104C600000F70004005D01080026010800F70008B5
:104C7000004A0108004A0108004A01080000000437
:104C80000000000400D20104002A0208004B0208C0
:104C900000E402080070030800000008000000049F
:104CA0000000000200DC000400E9000400DC00FC5D
:104CB000FFDC000800DC00020000000400DC00084B
:104CC00000E9000800DC0008005D0104000601089E
:104CD00000DC00FCFFDC000800DC00020000000239
:104CE00000F7000400060104001501FCFF0601089E
:104CF000001501020000000400150108000601086B
:104D000000150108009F010400370108001501FC8F
:104D1000FF37010800F70001004A0104004A0104BE
:104D2000004A0104000000080006010400260104F6
:104D3000004A0104005D01040088010200880102AC
:104D400000B8010400B8010400B8010400B801046F
:104D50000088010100B8010400B8010400B8010492
:104D600000B801040088010200000004005D010495
:104D7000005D0104005D0104005D0104004A0102C0
:104D8000004A010200260104002601040026010455
:104D90000026010400060102000000000024002794
:104DA000002A0000000000250028002B0000000061
:104DB000002300260029000404040404040404025F
:104DC00002020202020303030303030102040810A8
:104DD0002040800102040810200102040810200075
:104DE00000000800020100000304070000000000AA
:104DF000000000537461722057617273205468651B
:104E00006D650000000000000000000000000000D0
:104E10000000004E6F6B69610000000000000000A0
:104E20000000000000000000000000000000000082
:104E3000000000496D70657269616C204D6172639C
:104E400068000000000000000000000000000000FA
:104E500000000054657472697320284B6F726F6292
:104E600065696E696B6929000000000000000000A0
:104E70000000004675657220456C6973650000008E
:104E80000000000000000000000000000000000022
:104E900000000045314D312028417420446F6F6D72
:104EA000277320476174652900000000000000009E
:104EB0000000005375706572204D6172696F204269
:104EC000726F73000000000000000000000000008E
:104ED0000000005A656C6461205468656D650000CF
:104EE00000000000000000000000000000000000C2
:104EF00000000054616B65206F6E206D650000003E
:104F000000000000000000000000000000000000A1
:104F1000000000477265656E68696C6C202D205337
:104F20006F6E6963000000000000000000000000D8
:104F30000000005061636D616E0000000000000021
:104F40000000000000000000000000000000000061
:104F50000000004E6576657220676F6E6E61206797
:104F600069766520796F752075700000000000007B
:104F700000000050696E6B2050616E7468657200AD
:104F80000000000000000000000000000000000021
:104F90000000004F646520746F206A6F7900000084
:104FA0000000000000000000000000000000000001
:104FB0000000004B6579626F6172642D436174007B
:104FC00000000000000000000000000000000000E1
:104FD000000000426164696E65726965202D20429F
:104FE0006163680000000000000000000000000095
:104FF00000000053746172205472656B20496E7416
:10500000726F0000000000000000000000000000BF
:1050100000000053696C656E74204E696768740007
:105020000000000000000000000000000000000080
:105030000000004861707079204269727468646190
:1050400079000000000000000000000000000000E7
:105050000000004A6967676C797075666600000039
:105060000000000000000000000000000000000040
:105070000000004865647769672773205468656D90
:1050800065000000000000000000000000000000BB
:1050900000000050616368656C62656C202D2043E0
:1050A000616E6F6E00000000000000000000000054
:1050B000000000426C6F6F64792054656172732048
:1050C0002D20436173746C6576616E6961203200D6
:1050D0000000004D696E75657420696E2047000000
:1050E00000000000000000000000000000000000C0
:1050F000000000536F6E67206F662053746F726DEF
:1051000073202D204C6567656E64206F66205A659C
:105110006C646156616D70697265204B696C6C6579
:1051200072202D20436173746C6576616E69610035
:10513000000000427261686D73204C756C6C616296
:1051400079202857696567656E6C69656429000078
:105150000000004D6969204368616E6E656C2773BD
:10516000205468656D65000000000000000000002C
:10517000000000416C6C65206D65696E6520456EB0
:10518000746368656E00000000000000000000000D
:1051900000000000772D11241FBECFEFD8E0DEBF46
:1051A000CDBF12E0A0E0B1E0E4E3FAE602C0059072
:1051B0000D92A237B107D9F723E0A2E7B2E001C010
:1051C0001D92A334B207E1F718E2CBECD8E204C099
:1051D0002197FE010E940335CA3CD107C9F70E94FE
:1051E000C12D0C9418350C940000833081F028F404
:1051F000813099F08230A9F008958730A9F0883085
:10520000C9F08430B1F4809180008F7D03C080911B
:1052100080008F7780938000089584B58F7784BD58
:10522000089584B58F7DFBCF8091B0008F778093F8
:10523000B00008958091B0008F7DF9CFCF93DF93B8
:10524000282F30E0F901E152F24B8491F901E55346
:10525000F24BD491F901E954F24BC491CC23A1F063
:1052600081110E94F528EC2FF0E0EE0FFF1FE355AF
:10527000F24BA591B491EC91ED2381E090E009F41B
:1052800080E0DF91CF91089580E090E0FACF1F9306
:10529000CF93DF93282F30E0F901E152F24B849154
:1052A000F901E553F24BD491F901E954F24BC49161
:1052B000CC23A9F0162F81110E94F528EC2FF0E0E5
:1052C000EE0FFF1FED55F24BA591B4918FB7F894F7
:1052D000EC91111108C0D095DE23DC938FBFDF91D4
:1052E000CF911F910895DE2BF8CFCF93DF9390E0FD
:1052F000FC01E553F24B24918954924BFC018491BB
:105300008823C9F090E0880F991FFC01E756F24B03
:10531000A591B491FC01ED55F24BC591D491611169
:105320000DC09FB7F8948C91209582238C9388812F
:10533000282328839FBFDF91CF910895623051F4D5
:105340009FB7F8943C91822F809583238C93E881BA
:105350002E2BEFCF8FB7F894EC912E2B2C938FBF81
:10536000EACF1F93CF93DF93182FEB0161E00E94E8
:105370007529209739F460E0812FDF91CF911F913B
:105380000C944729CF3FD10511F461E0F5CFE12F0F
:10539000F0E0E152F24BE491E33031F140F4E130DE
:1053A000B1F0E230E1F0C038D1057CF7E4CFE7306E
:1053B00029F1E83059F1E430B1F780918000806242
:1053C00080938000D0938B00C0938A0004C084B582
:1053D000806884BDC7BDDF91CF911F91089584B5CA
:1053E000806284BDC8BDF7CF8091800080688093C3
:1053F0008000D0938900C0938800EDCF8091B000E9
:1054000080688093B000C093B300E5CF8091B00076
:1054100080628093B000C093B400DDCF3FB7F894B2
:105420008091880290918902A0918A02B0918B02AA
:1054300026B5A89B05C02F3F19F00196A11DB11DEF
:105440003FBFBA2FA92F982F8827BC01CD01620F2B
:10545000711D811D911D42E0660F771F881F991FE6
:105460004A95D1F708958F929F92AF92BF92CF92B3
:10547000DF92EF92FF926B017C010E940E2A4B019A
:105480005C01C114D104E104F104B9F00E940E2AB8
:10549000681979098A099B09683E7340810591055D
:1054A00080F321E0C21AD108E108F10888EE880EE5
:1054B00083E0981EA11CB11CE4CFFF90EF90DF9019
:1054C000CF90BF90AF909F908F90089590910001E2
:1054D00089130BC0E8E6F0E0E4919FEF90930001A0
:1054E000E13049F028F0E23061F060E00C944729A7
:1054F00010926E00FACF90916F009D7F90936F0095
:10550000F4CF909170009D7F9093700091E0909304
:10551000B0009091B100987F94609093B100109288
:10552000B300E3CFAF92BF92CF92DF92EF92FF92A0
:105530000F931F93CF93DF936C017B018B01040FBB
:10554000151FEB015E01AE18BF08C017D10759F057
:105550006991D601ED91FC910190F081E02DC60199
:105560000995892B79F7C501DF91CF911F910F9193
:10557000FF90EF90DF90CF90BF90AF900895FC0127
:10558000538D448D252F30E0842F90E0821B930BA8
:10559000541710F0CF96089501970895FC01918D4E
:1055A000828D981761F0A28DAE0FBF2FB11D5D9651
:1055B0008C91928D9F5F9F73928F90E008958FEFF3
:1055C0009FEF0895FC01918D828D981731F0828DA7
:1055D000E80FF11D858D90E008958FEF9FEF0895FE
:1055E000FC01918D228D892F90E0805C9F4F821B62
:1055F00091098F73992708958CE892E00E94F02A10
:1056000021E0892B09F420E0822F089580E090E0CA
:10561000892B29F00E94FC2A81110C940000089526
:10562000FC01A48DA80FB92FB11DA35ABF4F2C9117
:10563000848D90E001968F739927848FA689B7890E
:105640002C93A089B1898C91837080648C93938D05
:10565000848D981306C00288F389E02D80818F7DA8
:1056600080830895EF92FF920F931F93CF93DF9360
:10567000EC0181E0888F9B8D8C8D98131AC0E8898E
:10568000F989808185FF15C09FB7F894EE89FF895D
:105690006083E889F98980818370806480839FBFFB
:1056A00081E090E0DF91CF911F910F91FF90EF90FB
:1056B0000895F62E0B8D10E00F5F1F4F0F7311270B
:1056C000E02E8C8D8E110CC00FB607FCFACFE88946
:1056D000F989808185FFF5CFCE010E94102BF1CF93
:1056E000EB8DEC0FFD2FF11DE35AFF4FF0829FB7BA
:1056F000F8940B8FEA89FB8980818062CFCFCF93AA
:10570000DF93EC01888D8823B9F0AA89BB89E889E9
:10571000F9898C9185FD03C0808186FD0DC00FB68F
:1057200007FCF7CF8C9185FFF2CF808185FFEDCF0D
:10573000CE010E94102BE9CFDF91CF910895FC019B
:1057400001900020E9F73197AF01481B590BBC01CC
:105750008CE892E00C94922A8F929F92AF92BF9223
:105760000F931F93CF93DF93CDB7DEB7A1970FB6FB
:10577000F894DEBF0FBECDBF19A2423008F44AE054
:105780008E010F5D1F4F842E912CB12CA12CA501F1
:1057900094010E94B734E62FB901CA01EA30F4F44B
:1057A000E05DD801EE938D01232B242B252B79F777
:1057B00090E080E0109719F0CD010E949F2BA196F8
:1057C0000FB6F894DEBF0FBECDBFDF91CF911F9112
:1057D0000F91BF90AF909F908F900895E95CE1CFBB
:1057E000CF93DF930E949F2BEC0185E991E00E940B
:1057F0009F2B8C0F9D1FDF91CF910895CF92DF9249
:10580000EF92FF92CF93DF93C82FD0E0D09336036F
:10581000C0933503CC0FDD1FFE01E75BFE4F2081F7
:1058200031813093380320933703032E000C440B4F
:10583000550B60E879EA83E090E00E94D934CA0110
:10584000B9010E9496336093390370933A038093B1
:105850003B0390933C03C35FDE4F88819981909313
:105860003E0380933D0388E991E00E949F2BD0E0A6
:10587000C0E0E0913503F091360385E0EE0FFF1FA5
:105880008A95E1F7EC0FFD1FED50F24B64918CE827
:1058900092E00E94322B2196C032D10551F78DEA59
:1058A00091E00E949F2BC0903503D09036030D2CC1
:1058B000000CEE08FF084AE0C701B601F7FE0DC074
:1058C0006DE28CE892E00E94322B66277727CB01AD
:1058D0006C197D098E099F094AE00E94AC2B85E96D
:1058E00091E0DF91CF91FF90EF90DF90CF900C94FB
:1058F0009F2B1F920F920FB60F9211242F933F935D
:105900008F939F93AF93BF93809184029091850270
:10591000A0918602B09187023091830223E0230F89
:105920002D3758F50196A11DB11D20938302809358
:10593000840290938502A0938602B093870280919F
:10594000880290918902A0918A02B0918B020196FF
:10595000A11DB11D8093880290938902A0938A02B1
:10596000B0938B02BF91AF919F918F913F912F91F7
:105970000F900FBE0F901F90189526E8230F0296E8
:10598000A11DB11DD2CF1F920F920FB60F921124FD
:105990002F933F934F935F936F937F938F939F9337
:1059A000AF93BF93EF93FF9380917702909178022A
:1059B000A0917902B0917A02892B8A2B8B2BD1F19D
:1059C00090917202E0917302F091740280818927B4
:1059D00080838091770290917802A0917902B091B2
:1059E0007A02181619061A061B069CF48091770293
:1059F00090917802A0917902B0917A020197A10961
:105A0000B1098093770290937802A0937902B093C2
:105A10007A02FF91EF91BF91AF919F918F917F910A
:105A20006F915F914F913F912F910F900FBE0F900B
:105A30001F901895809100010E94662AEACF1F925C
:105A40000F920FB60F9211242F933F934F935F93B2
:105A50006F937F938F939F93AF93BF93EF93FF9336
:105A60008CE892E00E94102BFF91EF91BF91AF91D3
:105A70009F918F917F916F915F914F913F912F9166
:105A80000F900FBE0F901F9018951F920F920FB698
:105A90000F9211242F938F939F93EF93FF93E09195
:105AA0009C02F0919D028081E091A202F091A302FC
:105AB00082FD1BC090818091A5028F5F8F73209122
:105AC000A602821741F0E091A502F0E0E457FD4FF5
:105AD000958F8093A502FF91EF919F918F912F91C8
